S01B000050617469656E74547261636B65725F58626565322E73333723
S113000000000420DD0100000902000009020000D4
S113001009020000090200000902000009020000B0
S113002009020000090200000902000009020000A0
S11300300902000008020000090200000902000091
S11300400902000009020000090200000902000080
S11300500902000009020000090200000902000070
S11300600902000009020000090200000902000060
S11300700902000009020000090200000902000050
S11300800902000009020000090200000902000040
S11300900902000009020000C93200000902000040
S11300A009020000090200000902000019360000DC
S11300B00902000009020000090200000902000010
S11300C00902000009020000090200000902000000
S11300D009020000090200000902000009020000F0
S11300E009020000090200000902000009020000E0
S11300F009020000090200000902000009020000D0
S113010009020000090200000902000010B5054CB4
S1130110237833B9044B13B10448AFF300800123AF
S1130120237010BD8400002000000000E44B000098
S1130130084B10B51BB108480849AFF300800848C4
S1130140036803B910BD074B002BFBD0BDE810407A
S1130150184700BF00000000E44B000088000020A6
S11301608000002000000000154B002B08BF134B3B
S11301709D46A3F5803A00218B460F461348144A46
S1130180121A03F0BFFB0F4B002B00D098470E4B05
S1130190002B00D098470020002104000D000D48DA
S11301A0002802D00C48AFF3008003F085FB200048
S11301B0290003F0E9FA03F06BFB00BF000008001C
S11301C00000042000000000000000008400002063
S11301D010010020000000000000000006488047D5
S11301E00649074A074B9A42BEBF51F8040B42F82E
S11301F0040BF8E7FFF7B8FFED020000184C00000D
S11302000000002084000020FEE700BF80B582B01B
S113021000AF00F027F878600A4BD3F808210A4BA6
S113022013401B0A3B603B6801337A68B2FBF3F36B
S11302307B60064A7B6813607B6818460837BD46B6
S113024080BD00BF00400E4000FF010008000020F8
S113025080B400AF024B1846BD465DF8047B70477E
S1130260005A620280B483B000AF164BD3F89430C6
S113027003F00703032B08D0042B02D0022B08D071
S11302800BE0114B1B687B600BE04FF400437B6079
S113029007E00E4B1B687B6003E00D4B1B687B6023
S11302A000BF084BD3F8003103F4F8531B0A0133A1
S11302B07A68B2FBF3F318460C37BD465DF8047B4D
S11302C0704700BF00400E400400002000000020E2
S11302D00C00002080B400AF034B1B681846BD46D9
S11302E05DF8047B704700BF0000002080B400AFBD
S11302F0074B084A9A60064A054BD3F8883043F402
S11303007003C2F88830BD465DF8047B704700BFB7
S113031000ED00E00000000080B400AF4FF40043A3
S11303201846BD465DF8047B704700BF80B400AF3B
S11303304FF47A731846BD465DF8047B704700BFDE
S113034080B400AF034B1B681846BD465DF8047BC0
S1130350704700BF0400002080B483B000AF786011
S11303603960FEE780B487B000AFF860B9607A60A6
S1130370FB6803F10473DA00BB6813449B007B61E0
S11303807B697A681A601C37BD465DF8047B704748
S113039080B485B000AF786039607B6803F1047382
S11303A0DA003B6813449B00FB60FB681B6818463B
S11303B01437BD465DF8047B704700BF80B582B03A
S11303C000AF78607B681F2B04D906484FF4967100
S11303D0FFF7C2FF7B68012202FA03F318460837CD
S11303E0BD4680BD8047000080B500AF00BF044813
S11303F01221FFF7CDFF0346002BF8D180BD00BFCB
S113040004300E4080B500AFFFF7EEFF034B5B688E
S113041003F440331B0CDBB2184680BD00300E40A1
S113042080B584B000AF78600123FB607B68124A1A
S1130430934204D80023FB600023BB6008E07B6880
S11304400E4A934202D80123BB6001E00223BB6041
S11304500B481021FA68FFF785FF0949084BD3F8C8
S1130460003123F08072BB681B061343C1F80031CE
S11304701037BD4680BD00BF0048E8010090D0039E
S113048000400E4080B483B000AF054B1B687B6016
S11304907B6818460C37BD465DF8047B704700BF87
S11304A01000002080B582B000AFFFF7DBFE78605B
S11304B0064BD3F8003103F4F8531B0A01337A686E
S11304C002FB03F318460837BD4680BD00400E40CA
S11304D080B582B000AF0F4800F060FB0346FB70AC
S11304E0FB78072B05D0092B07D1FFF7BBFE7860FB
S11304F00BE0FFF7C7FF786007E000237B60064846
S113050040F6D841FFF728FF00BF7B68184608373C
S1130510BD4680BD06000E004C48000080B584B086
S113052000AF78607B68002B1CD1204800F036FBBC
S11305300346FB7200BFFB7A013B072B28D801A2BC
S113054052F823F0730500009105000091050000A6
S11305508105000091050000910500007905000067
S113056089050000124840F6F841FFF7F5FE002324
S113057017E00023FB6013E0FFF784FFF8600FE04F
S1130580FFF7A8FEF8600BE0FFF78CFFF86007E0C8
S11305900023FB60064840F60F51FFF7DDFE00BF65
S11305A0FB6818461037BD4680BD00BFB800320056
S11305B04C48000080B584B000AF786039601F4BB0
S11305C05B6803F04073FB600023BB6013E01C4ACC
S11305D0BB68DB0013441A793B68DBB29A4207D14B
S11305E0174ABB6852F833207B689A4200D305E06F
S11305F0BB680133BB60BB68042BE8D9BB68052B1F
S113060007D10323FB600F4840F61661FFF7A4FEF1
S113061005E00B4ABB68DB0013445B79FB60FB68B5
S11306201B06FB600549054B5B6823F04072FB68C1
S113063013434B601037BD4680BD00BF00000E4021
S1130640B04800004C48000080B582B000AF0D4BAC
S11306501B6C002B14BF01230023FB71094B41F6D3
S113066071321A64FFF7F4FD034618460021FFF7C0
S1130670A1FFFB79002B02D0024B00221A64083739
S1130680BD4680BD00000E4080B584B000AF7860E8
S113069039600C4B1B6C002B14BF01230023FB732C
S11306A0084B41F671321A6478683968FFF782FFA3
S11306B0FB7B002B02D0034B00221A641037BD468B
S11306C080BD00BF00000E4080B487B000AF7860EA
S11306D00F237B617B6803333B617B69FB60FA68B2
S11306E03B69934228BF1346BB60BB681B07BB60D2
S11306F0BB6818461C37BD465DF8047B704700BFD5
S113070080B400AF044B5B6A03F030031B09184646
S1130710BD465DF8047B704700400E4080B483B052
S113072000AF78600649064B5B6A23F030027B68B1
S11307301B0113434B620C37BD465DF8047B7047C5
S113074000400E4090B585B000AF78600023BB60D8
S11307507B683C4A93420BD03B4A934208D03B4AC5
S1130760934205D03A4840F61671FFF7F5FD00E0D4
S113077000BF786800F012FA0346FB607B68314AD8
S113078093420CD0304A934210D0304A934214D151
S1130790304BD3F8803003F00703FB6013E02D4B9C
S11307A0D3F8843003F00703FB600CE0294BD3F843
S11307B0883003F00703FB6005E0254840F64571E7
S11307C0FFF7CAFD00BFFB68042B2ED801A252F824
S11307D023F000BF25080000E9070000F10700002E
S11307E001080000F9070000FFF796FDB86024E057
S11307F0FFF7A6FDB86020E0FFF798FDB8601CE0A5
S1130800FFF704FD0446134BD3F8003103F0807363
S11308101B0E01331846FFF7D1FD0346B4FBF3F377
S1130820BB600AE00023BB6007E00023BB6008480C
S113083040F69D71FFF790FD00BFBB681846143762
S1130840BD4690BD030020000500240002001E00E8
S11308504C48000000400E4080B483B000AF786084
S11308600A4BD3F8443103F00103002B00D007E016
S113087000BF064BD3F840217B681340002BF8D10E
S11308800C37BD465DF8047B704700BF00400E4046
S113089080B400AFBD465DF8047B704780B400AF00
S11308A0BD465DF8047B704780B586B000AF7860C4
S11308B00B46FB7000233B617B681B0A03F00F03AC
S11308C0013B092B32D801A252F823F0F5080000AD
S11308D0010900002D0900002D090000FB0800009B
S11308E007090000110900002D0900001B09000080
S11308F0270900001A4B7B611EE01A4B7B611BE049
S1130900194B7B6118E0194B7B6101233B6113E0B8
S1130910174B7B6110233B610EE0164B7B614FF458
S113092080333B6108E0144B7B6105E0134841F2DE
S1130930A131FFF711FD10E07B681B0B03F01F03CF
S1130940FB603B69002B02D03869FFF785FFFB7819
S11309507869F9681A46FFF705FD1837BD4680BD6A
S113096000400E40B0400E40C0400E40E0400E40FB
S1130970E8400E40F0400E4050410E404C4800000C
S113098080B584B000AF78607B6803F47813B3F566
S1130990A01F7DD0B3F5A01F1AD8B3F5202F50D0D7
S11309A0B3F5202F08D8B3F5003F4ED0B3F5802F10
S11309B038D0002B32D0D8E0B3F5602F00F0C880D7
S11309C0B3F5801F00F0C880B3F5402F4CD0CCE0C5
S11309D0B3F5001F00F08B80B3F5001F0AD8B3F500
S11309E0D01F00F08980B3F5F01F4CD0B3F5B01FD1
S11309F05CD0BAE0B3F5381F6AD0B3F5381F04D819
S1130A00B3F5101F00F09F80AFE0B3F5401F00F076
S1130A108680B3F5481F00F0A380A6E0FFF722FC10
S1130A20F860AAE0FFF71EFCF860564BD3F80C21DF
S1130A30554B13401B0A0133FA68B2FBF3F3FB6016
S1130A409BE0FFF70FFCF86097E0FFF70BFCF86002
S1130A504C4BD3F808214C4B13401B0A0133FA6862
S1130A60B2FBF3F3FB6088E0FFF7FCFBF860454B57
S1130A70D3F8143103F4F8531B0A0133FA68B2FBB8
S1130A80F3F3FB6079E04148FFF75CFEF86074E043
S1130A903F48FFF757FEF8603A4BD3F8303103F084
S1130AA003031A46FB68D340FB6066E03748FFF750
S1130AB049FEF860334BD3F8203103F00F03184696
S1130AC0FFF77CFC0246FB68B3FBF2F3FB6054E0E7
S1130AD02E48FFF737FEF8602A4BD3F8203103F095
S1130AE030031B091A46FB68D340FB6045E02948E4
S1130AF0FFF728FEF86040E02648FFF723FEF86081
S1130B00204BD3F8283103F030031B091846FFF7B4
S1130B1055FC0246FB68B3FBF2F3FB602DE01D4875
S1130B20FFF710FEF860174BD3F8283103F4407335
S1130B301B0A04331846FFF741FC0246FB68B3FB6B
S1130B40F2F3FB6019E01248FFF7FCFDF86014E0D3
S1130B50FFF7BEFCF86010E0FFF794FCF8600CE0CF
S1130B600020FFF7DBFCF86007E00023FB600A4885
S1130B7041F2C741FFF7F0FB00BFFB68184610378E
S1130B80BD4680BD00400E4000FF010002001E0073
S1130B9005002400030020004C48000080B584B008
S1130BA000AF78600123FB737B6803F00F03BB6025
S1130BB0BB68013B072B00F2C48001A252F823F06A
S1130BC0E10B0000370C0000670C0000430D00002F
S1130BD0AD0C0000DD0C0000430D0000010D000011
S1130BE05E4BD3F8943003F00703023B052B1ED869
S1130BF001A252F823F000BF1D0C0000170C0000E6
S1130C00110C0000230C00002F0C0000290C000024
S1130C100223FB730EE00323FB730BE00423FB733B
S1130C2008E00B23FB7305E00C23FB7302E00523B0
S1130C30FB7300BF8DE0494BD3F8803003F007030A
S1130C40022B06D0042B07D0012B08D10323FB73FE
S1130C5008E00223FB7305E00A23FB7302E001238F
S1130C60FB7300BF75E03D4BD3F8843003F00703FA
S1130C70013B032B16D801A252F823F08D0C00007F
S1130C80930C00009F0C0000990C00000323FB73DD
S1130C900BE00223FB7308E00A23FB7305E0062341
S1130CA0FB7302E00123FB7300BF52E02B4BD3F82C
S1130CB0883003F00703022B06D0042B07D0012B46
S1130CC008D10323FB7308E00223FB7305E00A2326
S1130CD0FB7302E00123FB7300BF3AE01F4B1B6F61
S1130CE003F00103002B04D0012B05D10923FB736E
S1130CF005E00723FB7302E00123FB7300BF28E038
S1130D00164BD3F85C3103F03003102B0CD0102BAE
S1130D1002D8002B05D010E0202B08D0302B09D0AE
S1130D200BE00123FB730BE00723FB7308E00423B0
S1130D30FB7305E00823FB7302E00123FB7300BF90
S1130D4007E00023FB73064841F6EE01FFF704FBBE
S1130D5000BFFB7B18461037BD4680BD00400E40E7
S1130D604C48000080B58AB000AF78600B46FB7039
S1130D7003237B62032387F823300023BB61002312
S1130D807B617B68112B19D1FB78042B03D1FFF70E
S1130D90A1FA78610BE0FB78052B08D100F08AF901
S1130DA00246BB4B9A4202D900F084F978617B6910
S1130DB0002B03D07869002100F0CCFE7B6803F09F
S1130DC00F033B613B69013B072B00F2578101A2F2
S1130DD052F823F0F50D0000010F0000330F00005E
S1130DE07D100000150F0000D50F00007D100000DD
S1130DF0FF0F0000FB78023B0A2B49D801A252F8EE
S1130E0023F000BF310E00003D0E0000490E00002B
S1130E105B0E0000910E0000910E0000910E000088
S1130E20910E0000850E00006D0E0000790E00008A
S1130E3004237B62002387F823302FE003237B62A3
S1130E40012387F8233029E002237B62022387F8F9
S1130E5023309048FFF7E4FA20E001237B62032368
S1130E6087F823308B48FFF7DBFA17E005237B6212
S1130E70032387F8233011E007237B62062387F8D6
S1130E8023300BE0844841F6AF11FFF765FAFBE02D
S1130E90814841F6B411FFF75FFAF5E097F8233083
S1130EA0062B06D097F8233018460121012200F0C2
S1130EB0C7F9FFF7C9FBFFF7EBFC7B69002B01D0F7
S1130EC0FFF792FA754A7B6A53677548FFF758FD36
S1130ED003461846FFF7A4FAFFF798F9F860FFF7FE
S1130EE091FA0346F8681946FFF7CEFB7B69002B9D
S1130EF003D10020012100F02DFEFFF7CFFCC3E059
S1130F00684BBB61FB78062B04D1634841F6F011B2
S1130F10FFF722FABB69002B01D0BB6900E0624BEA
S1130F20BB61FB78062B04D15B4841F60421FFF733
S1130F3013FABB69002B01D0BB6900E05B4BBB61BA
S1130F40FB78013B092B3BD801A252F823F000BFE8
S1130F50790F00007F0F00008F0F0000C10F000009
S1130F60C10F00009F0F0000C10F0000C10F00005F
S1130F70C10F0000BB0F00000023FB6126E000202E
S1130F800121012200F05CF90223FB611EE0012033
S1130F900121012200F054F90123FB6116E0FFF75F
S1130FA035F903461846FFF73BFA4148022101226E
S1130FB0FFF7D8F90323FB6108E00423FB6105E094
S1130FC0354841F63021FFF7C7F95DE0BB69FA699E
S1130FD01A6059E0FB78072B02D0092B04D007E0F4
S1130FE02E4B00221A6709E02C4B01221A6705E0F8
S1130FF0294841F6BA21FFF7AFF945E044E0FB7810
S1131000013B072B28D801A252F823F02D10000031
S1131010591000005910000043100000591000003E
S11310205910000033100000531000000023FB612E
S113103018E004200121012200F002F90123FB61E0
S113104010E002200121012200F0FAF80223FB61E2
S113105008E00323FB6105E00F4841F61831FFF770
S11310607BF911E00D490D4BD3F85C3123F03002CC
S1131070FB691B011343C1F85C3105E0064841F6E6
S1131080EF31FFF769F900BF2837BD4680BD00BFC7
S1131090002D31010148E8014C48000000400E4099
S11310A000250A0080400E4088400E4084400E40D7
S11310B0B0400E4080B400AF034B1B681846BD46D9
S11310C05DF8047B704700BF0C000020B0B584B00D
S11310D000AF78601120FFF761FD0346042B04D1B3
S11310E0374841F69F61FFF737F9022000210122BA
S11310F000F0A6F87B685B78002B07D17B689B78AF
S1131100002B03D17B68DB78002B04D02C4841F6FC
S1131110DD61FFF721F90023FB607B681B7C012B59
S113112004D1274841F6E261FFF716F97B681B7C7E
S1131130022B01D10123FB602249224B5B6A23F07D
S11311400102FB6813434B627B681B781E4808212D
S11311501A46FFF707F91B497B689B88DB027A680C
S1131160527A1343CB62174D164B1B6B03F07F620D
S11311707B68DB88DB0213437A68927A1A437B68C4
S11311801B7ADB0142EA03047B681B7A1846FFF7EB
S11311909BFA034623432B630A497B685B7B1A0350
S11311A07B689B7B1B0113437A68D27B1A437B6861
S11311B01B7B1B0413434B631037BD46B0BD00BFFC
S11311C04C48000000400E4024400E4080B584B0DE
S11311D000AF78601120FFF7E1FC0346022B04D135
S11311E0144841F65D71FFF7B7F8134B9A6B134B34
S11311F013407A6812781A437B685B78DB021A43DF
S11312007B689B781B061A437B68DB781B021343BD
S1131210FB60094B9A6BFB689A4207D000200021BF
S1131220012200F00DF8044AFB6893631037BD46B1
S113123080BD00BF4C48000000400E4080E4FFF831
S113124080B588B000AF0346FB710B46BB711346F3
S11312507B71FB79042B3CD801A252F823F000BF28
S1131260BD120000AB1200008712000075120000CE
S11312709912000001237B6102233B610123FB617E
S11312800023BB612BE004237B6108233B61032320
S1131290FB610223BB6122E010237B6120233B61BD
S11312A00523FB610423BB6119E040237B61802398
S11312B03B610723FB610623BB6110E04FF480739D
S11312C07B614FF400733B610923FB610823BB611D
S11312D005E0464841F6F571FFF73EF883E0BB7937
S11312E0002B64D00023FB73FB79022B1AD1FFF788
S11312F007FA0346002B15D13D4BDB6B03F48063E7
S1131300002B04D1394842F20401FFF725F80123E8
S1131310FB73384B5B6A03F00103002B02D00120FE
S1131320FFF7FCF9334A7B69136600BF3248B96999
S1131330FFF72EF80346002BF8D07B79002B35D02D
S113134000BF2D48F969FFF723F80346002BF8D0B6
S1131350FB79022B2AD1FB7B002B27D0254B5B6A20
S113136003F00103002B05D002202021012200F00C
S113137085F903E00220002100F026F9022000F0A4
S11313803DF8B860022000210122FFF759FF022036
S1131390B96800F071F8174A7B69136600BF1648F4
S11313A0F969FEF7F5FF0346002BF8D01BE0114A5C
S11313B03B69136600BF0F4BD3F89030BA69012123
S11313C001FA02F21340002BF5D17B79002B0AD0ED
S11313D000BF084BD3F89030FA69012101FA02F2F8
S11313E01340002BF5D12037BD4680BD4C4800008A
S11313F000300E4000400E4090400E4080B584B056
S113140000AF0346FB71FB79013B032B23D801A2F8
S113141052F823F025140000491400003114000090
S11314203D140000124B1B6AC3F30803FB601AE06F
S11314300F4B1B6903F07F03FB6014E00C4B9B69AB
S113144003F07F03FB600EE0094BD3F89C30C3F339
S11314500A03FB6007E00023FB60064842F28101B7
S1131460FEF77AFF00BFFB6818461037BD4680BD03
S113147000400E404C48000080B584B000AF0346E5
S11314803960FB71FB79013B032B00F28C8001A2D4
S113149052F823F0A514000059150000E5140000CB
S11314A01F1500003B68B3F5007F04D3424842F2A5
S11314B0A701FEF751FF3B68C3F308033B6000BF7D
S11314C03E481A21FEF764FF0346002BF8D13C493D
S11314D03B4B1B6A23F4FF7323F001033A68134365
S11314E00B6266E03B687F2B04D9334842F2B401B7
S11314F0FEF732FF3B6803F07F033B6000BF2F48D9
S11315001821FEF745FF0346002BF8D12C492C4B3C
S11315101B6923F07F023B6813430B6149E03B687E
S11315207F2B04D9244842F2CF01FEF715FF3B6814
S113153003F07F033B6000BF20481921FEF728FF1A
S11315400346002BF8D11E491D4B9B6923F07F02F3
S11315503B6813438B612CE0194BD3F8903003F0B4
S11315600403002B04D0144842F2DE01FEF7F4FE1B
S1131570134A134B5B6A23F0300343F010035362A6
S11315803B6803F4F063DB091846FFF79DF8F86045
S11315900B490B4B1A6B0B4B13403A681A43FB680D
S11315A013430B6305E0044842F2F801FEF7D4FE4E
S11315B000BF1037BD4680BD4C48000040410E407E
S11315C000400E4000F8FF0F80B584B000AF034622
S11315D00A46FB711346BB71FB79022B04D02448E5
S11315E042F21011FEF7B8FEFFF78AF80346002B0B
S11315F003D14FF44003FB601BE0BB79202B04D0E4
S1131600302B0AD0002B04D00BE04FF40003FB6016
S11316100FE04FF44003FB600BE04FF44003FB602A
S113162007E0144BFB60124842F22B11FEF794FEC4
S113163000BF00BF104BD3F89020FB681A40FB6832
S11316409A42F7D1FB6803F48003002B0AD00A4BBB
S1131650D3F8A03003F48063002B14BF01230023CC
S1131660DBB200E0012318461037BD4680BD00BF41
S11316704C480000FF33E10700400E4080B582B0C3
S113168000AF0346FB710B46BB7113467B71FB79BC
S1131690022B16D1BB79002B07D00F4B4FF480627D
S11316A0C3F8A8200C4ABB7953667B79002B07D07A
S11316B0FA79BB7910461946FFF786FF034607E01F
S11316C005E0064842F26111FEF746FE00BF012321
S11316D018460837BD4680BD00400E404C48000007
S11316E080B483B000AFEFF310833B603B687B6052
S11316F072B67B6818460C37BD465DF8047B7047AC
S113170080B483B000AF78607B68002B00D162B6F0
S11317100C37BD465DF8047B704700BF80B400AF52
S113172072B6BD465DF8047B704700BF80B400AF5D
S113173062B6BD465DF8047B704700BF80B500AF5C
S1131740FEF764FD80BD00BF80B487B000AFF860D1
S1131750B9607A60FB6803F10473DA00BB68134470
S11317609B007B617B697A681A601C37BD465DF813
S1131770047B704780B485B000AF786039607B68C3
S113178003F10473DA003B6813449B00FB60FB68BD
S11317901B6818461437BD465DF8047B704700BFCC
S11317A080B500AF00BF04481221FFF7E3FF0346F2
S11317B0002BF8D180BD00BF04300E4080B500AFCF
S11317C0FFF7EEFF034B5B6803F440331B0CDBB203
S11317D0184680BD00300E4080B483B000AF7860FE
S11317E0034A7B68D3620C37BD465DF8047B7047BF
S11317F000300E4080B400AF034B5B6A1846BD4610
S11318005DF8047B704700BF00300E4080B400AF29
S1131810034B00225A63BD465DF8047B704700BF4A
S113182000300E4080B400AF034B4AF6E8525A63CE
S1131830BD465DF8047B704700300E4080B400AFB5
S1131840034B0022C3F88021BD465DF8047B70473A
S113185000400E4080B400AF044B45F60E02C3F8BE
S11318608021BD465DF8047B704700BF00400E40F8
S113187080B483B000AF0346FB71FB79C3F102036C
S11318801A461023934018460C37BD465DF8047B76
S1131890704700BF90B585B000AF0346FB71FB797C
S11318A0002B1AD1474BD3F89030474A13601120CC
S11318B0FFF774F903461A46444B1A70FFF770FF9A
S11318C0434B5B6803F440331B0CDAB2414B1A7090
S11318D03C4B1B69404A136070E03D4C3D4B1B7808
S11318E01846FFF7C5FF03462361364BD3F8803112
S11318F003F00103FB60FFF7ADFF0023BB60324B35
S11319001B6803F00103BA681343BB602E4B1B68CA
S113191003F01003BA681343BB602B4B1B6803F03E
S11319204003BA681343BB60274B1B6803F00403EE
S1131930BA681343BB60244B1B6803F48073BA6812
S11319401343BB601F4ABB681366FFF729FF204B94
S11319501B6803F01003002B18D000BF194BD3F8F9
S1131960403103F08073002BF8D1164A1A4B1B68E0
S11319701361164B1B78052B08D1184B1C68FFF715
S11319801DFF034620461946FEF77EFE0F4B1B78CB
S1131990052B05D00D4B1B7811201946FFF7E2F9F2
S11319A0094B1B6803F00103002B02D1054B0222F3
S11319B01A66FB68002B01D0FFF740FF1437BD46C1
S11319C090BD00BF00400E40AC000020B0000020DD
S11319D000300E40B1000020B40000200C000020B4
S11319E080B582B000AFFFF7DBFE104B1B6803F439
S11319F040731B0A7B600D4B5B6803F440331B0C84
S1131A003B607A683B689A4206D9084A074B1B68D0
S1131A1043F01003136005E0044A044B1B6823F0F1
S1131A20100313600837BD4680BD00BF00300E4070
S1131A3080B483B000AF0B4B1B6803F01003002B82
S1131A400BD0094B1B6903F4F8131B0C7B607B68F8
S1131A50082B02D1054B064A1A600C37BD465DF8C7
S1131A60047B704700300E4000400E400C00002004
S1131A70C0EA210180B400AFBD465DF8047B704725
S1131A8080B400AFBD465DF8047B704780B582B07A
S1131A9000AF0346FB71FB79002B02D00020FFF757
S1131AA0F9FEFFF79DFF0C4A0B4B1B6943F004033F
S1131AB01361FFF7DFFF30BFFFF7E2FFFB79002B75
S1131AC003D00120FFF7E6FE03E0FFF7B1FFFFF7C5
S1131AD035FE0837BD4680BD00ED00E080B584B01A
S1131AE000AF0346FB71FB79002B02D00020FFF707
S1131AF0D1FEFFF775FF154BD3F8803103F00103D6
S1131B00FB60FFF7A7FE114B4FF420721A66FB68C7
S1131B10002B01D0FFF792FE0D4A0D4B1B6943F0D9
S1131B2004031361FFF7A6FF30BFFFF7A9FFFB799A
S1131B30002B03D00120FFF7ADFE03E0FFF778FF91
S1131B40FFF7FCFD1037BD4680BD00BF00400E40CE
S1131B5000ED00E080B584B000AF78600B46FB7008
S1131B60154BD3F8003103F4F8531B0A0133BB605F
S1131B707B68002B07D1FEF775FB0246BB6803FBAD
S1131B8002F3FB6001E07B68FB600C4B1B78002BCD
S1131B9009D0FB680A4A934205D8FB78022019460B
S1131BA000F010F804E0FB780020194600F00AF871
S1131BB01037BD4680BD00BF00400E40A800002085
S1131BC0FF2C310190B587B000AF03460A46FB7184
S1131BD01346BB711F4BD3F8003103F4F8531B0AAF
S1131BE001337B61FEF73EFB3861FFF7E7FD0346F7
S1131BF0FB73FA7BFB799A4200D127E03B697A694F
S1131C0002FB03F3BB60FB79022B0CD1BB68124AC5
S1131C10934204D911484FF49F61FEF79DFB386944
S1131C200221FEF731FD0E4CFB791846FFF720FE2A
S1131C3003462361BB79002B01D0FFF7B1FDFB798B
S1131C40002B03D138690021FEF71EFD1C37BD4669
S1131C5090BD00BF00400E40002D3101D848000067
S1131C6000300E4080B582B000AF78600D490D4B56
S1131C701B6823F440727B685B781B0213430B6080
S1131C807B685B78022B0AD1074B5B6A03F0005335
S1131C90002B04D0054840F23251FEF75DFB0837B3
S1131CA0BD4680BD00300E4000400E40D8480000C4
S1131CB080B400AF01231846BD465DF8047B70472D
S1131CC080B582B000AF0C4A0B4BDB6E43F08073DF
S1131CD0D3660A480021FFF74DFD78607B68002B2E
S1131CE003D0042000F060FD02E0002000F05CFD61
S1131CF00837BD4680BD00BF00300E404C300E405A
S1131D0080B58AB000AF01237B627B6A1B053B620E
S1131D103F4BDB6C03F470631B0AFB613D4B1B8878
S1131D201A463C4B1B8828335B08134403F12801F3
S1131D30FB695A1C13469B001344B1FBF3F3013BAC
S1131D40BB61BB697B6107233B613A697B69934251
S1131D5028BF1346BB61BB691B06BB61BB6923F08B
S1131D60E063002B04D02C4840F21371FEF7F4FA20
S1131D703B6A23F4E003002B04D0274840F214719B
S1131D80FEF7EAFA2248224BDB6C23F0EE62B969D3
S1131D903B6A0B431343C364204B1B881BB2002BC9
S1131DA032DB1E4B1B88FB81FA89FB8928335B08D5
S1131DB0134403F12802FB6901335900FB69013321
S1131DC05B080B44B2FBF3F3BB60BB687B60072387
S1131DD03B603A687B68934228BF1346BB60BB688C
S1131DE01B01BB60BB6823F07003002B04D00A48BE
S1131DF040F22C71FEF7B0FA0549054B1B6D23F038
S1131E007002BB6813430B652837BD4680BD00BF15
S1131E1000300E40A0000020D8480000A40000209C
S1131E2080B483B000AF78600B467B807B689AB245
S1131E30044B1A80044A7B8813800C37BD465DF836
S1131E40047B7047A0000020A400002080B582B06D
S1131E5000AF0346FB71FB79002B02D0012B04D0A9
S1131E6007E0084B084A9A6509E0064B074A9A6559
S1131E7005E007484FF4EB61FEF76EFA00BF083740
S1131E80BD4680BD00300E4077402057372110B743
S1131E90D848000080B584B000AF0346FB710B4600
S1131EA0BB7113467B71344BD3F88031FB60BB7933
S1131EB0032B1FD801A252F823F000BFCD1E00004F
S1131EC0D51E0000E11E0000ED1E0000FB68DBB221
S1131ED0FB6016E0FB6803F47F431B0AFB6010E021
S1131EE0FB6803F47F031B0CFB600AE0FB681B0E1A
S1131EF0FB6006E0214840F29C71FEF72DFA0023B6
S1131F0036E07B79002B16D1FB681B03FB60FB6872
S1131F1023F47043002B06D0184840F2A771FEF753
S1131F201BFA002324E01649154BDB6E23F47042A0
S1131F30FB681343CB667B79012B18D1FB681B0329
S1131F40FB60FB6823F47043002B06D00B4840F27F
S1131F50B371FEF701FA00230AE00949084BD3F8EC
S1131F60EC3023F47042FB681343C1F8EC300123D6
S1131F7018461037BD4680BDB081E00FD848000038
S1131F8000300E4080B588B000AFF860B9601146EB
S1131F901A460B46FB711346BB710023FB610023F9
S1131FA0BB61BB791A02FB79002B01D0012300E04D
S1131FB0002313437B617B6940F2011293422BD0CF
S1131FC0B3F5817F07D2012B19D0012B4BD3B3F585
S1131FD0807F55D07BE040F20122934229D040F229
S1131FE00122934203D8B3F5007F56D06FE0B3F5D6
S1131FF0407F5FD040F20132934227D067E03B4BF1
S1132000D3F87431FB61FB6903F47F431B0ABB61A2
S1132010FB69DBB2FB6160E0344BD3F87431FB61E4
S1132020FB691B0EBB61FB6903F47F031B0CFB61A3
S113203053E02E4BD3F87831FB61FB6903F47F4303
S11320401B0ABB61FB69DBB2FB6146E0274BD3F89B
S11320507831FB61FB691B0EBB61FB6903F47F03F1
S11320601B0CFB6139E0214BD3F86C31FB61FB693C
S113207003F47F431B0ABB61FB69DBB2FB612CE009
S11320801A4BD3F86C31FB61FB691B0EBB61FB6916
S113209003F47F031B0CFB611FE0144BD3F8703176
S11320A0FB61FB6903F47F431B0ABB61FB69DBB281
S11320B0FB6112E00D4BD3F87031FB61FB691B0E21
S11320C0BB61FB6903F47F031B0CFB6105E008485B
S11320D040F61801FEF740F900BFFB68FA691A6080
S11320E0BB68BA691A602037BD4680BDB081E00F75
S11320F0D848000080B584B000AF0346FB713E4B66
S11321005B6B012B0CBF01230023FB73FFF78AFBDE
S113211000BF394B9B6F03F00103002BF9D1364B01
S11321201B6C03F00303BB60BB68002B04D0334873
S11321300D210122FFF708FBBB68DBB2FA799A4252
S113214009D1FB79002B05D12C480D210022FFF782
S1132150FBFA4DE04CE0BB68032B02D0BB68002BBC
S113216020D1FB79022B02D0FB79012B1AD14FF439
S11321700020FFF731FB00BF1F4B9B6F03F00103EF
S1132180002BF9D11C4A1C4B1B6C23F0030343F0B6
S11321900103136400BFFFF72DFB034603F4002380
S11321A0002BF8D000BF144B9B6F03F00103002BEE
S11321B0F9D11149104B1B6C23F00302FB79134333
S11321C00B6400BF0C4B9B6F03F00103002BF9D190
S11321D0FB79002B14BF01230023DBB207480D2138
S11321E01A46FFF7B1FAFB7B002B01D0FFF70EFB79
S11321F01037BD4680BD00BF00300E4054300E4045
S113220080B584B000AF78606B4B02229A636A4B4E
S11322109B6B03F00F03022B06D0684840F6BA010B
S1132220FEF79AF80023C3E0FFF742FD7B681B89A1
S1132230C82B04D9614840F6C401FEF78DF87B68C9
S11322409A887B681B899A4204D95C4840F6C50188
S1132250FEF782F87B689B891BB2C82B04DD5748C4
S113226040F6C601FEF778F87B685B78012B09D14C
S11322707B689B88C82B12D9504840F6CA01FEF7E8
S11322806BF80CE07B685B78022B08D17B689B8839
S11322900A2B04D9494840F6CF01FEF75DF87B6864
S11322A0DB8842F21072934204D9444840F6D701C5
S11322B0FEF752F87B68DB884A2B02D80023FB60C8
S11322C015E07B68DB88B3F5FA7F03D24FF08053C7
S11322D0FB600CE07B68DB8840F6C312934203D8B2
S11322E04FF00053FB6002E04FF04053FB60324874
S11322F0314BDB6C23F0405323F001037A6892895D
S113230012B2002A01DB012100E00021FA680A432D
S11323101343C364284A284BD3F8EC3043F4407386
S1132320C2F8EC30FFF7CCFC7B681B891A467B684B
S11323309B891BB210461946FFF772FD7B689A8889
S11323401F4B1A807B689B88184600F0B9F97B689C
S11323509B7B1846FFF77AFD7B685B881846012152
S1132360012200F031F8034683F00103DBB2002BB5
S113237006D0124840F60E11FDF7EEFF002317E0D9
S11323800D4A0D4BDB6B43F48063D3637B685B784E
S11323901846FFF7AFFE7B689B7A202B01D10123FF
S11323A000E00023074805211A46FFF7CDF9012371
S11323B018461037BD4680BD00300E40D848000096
S11323C0A20000203C300E4090B595B000AF78607C
S11323D00B46FB701346BB700023FB6400237B6435
S11323E007F1240300221A60043300221A60043324
S11323F000221A60043307F1180300221A60043320
S113240000221A60043300221A60043307F10C031B
S113241000221A60043300221A60043300221A6076
S1132420043300233B810023BB727B68B3F5E16F67
S113243006D37B6840F6B832934201D8012300E00A
S1132440002387F8433097F8433003F0010387F8FB
S1132450433097F8433083F00103DBB2002B06D0FE
S1132460944840F65311FDF777FF00231EE17B6883
S1132470B3F5E16F8CBF0123002387F8423097F84E
S11324804230002B0AD04FF4E163FB6440F6B833CA
S11324907B647A6CFB6CD31ABB6409E04FF49663DB
S11324A0FB644FF4E1637B647A6CFB6CD31ABB640A
S11324B097F84230002B0CD07F4BD3F868313B6245
S11324C03B6A1B0E7B613B6A03F47F031B0C3B627C
S11324D00BE0794BD3F868313B623B6A03F47F43EA
S11324E01B0A7B613B6ADBB23B62744BDB6C03F01F
S11324F040531B0FDBB23B723B7A07F1180007F124
S11325000C0197F84220FFF73DFD6C4BD3F8EC30FB
S113251003F440731B0ADBB27B727C7A07F1180365
S1132520191D07F10C031A1D97F84230084611468D
S11325301A462346FFF726FD7A68FB6CD31A79699D
S11325403A6A8A1A02FB03F2BB6CB2FBF3F3FB6236
S1132550FA6A3B6A1344FB627A68FB6CD31AF96823
S1132560BA698A1A02FB03F2BB6CB2FBF3F37B6217
S11325707A6ABB6913447B627A68FB6CD31A396943
S1132580FA698A1A02FB03F2BB6CB2FBF3F3BB6277
S1132590BA6AFB691344BB62FA6A7B699A4213D82C
S11325A0FA6A3B6A9A420FD3BA6A3B699A420BD8D9
S11325B0BA6AFB699A4207D37A6AFB689A4203D8DB
S11325C07A6ABB699A4206D23A4840F6A111FDF7ED
S11325D0C3FE00236AE0BB78002B12D03749374B87
S11325E0DB6D23F4FE4323F00203FA6A12021A435A
S11325F097F84230002B01D0022300E0002313435C
S1132600CB65FB78002B50D03B7A97F842201046DC
S113261019460022FFF73EFC034683F00103DBB2B8
S1132620002B06D023484FF41B61FDF795FE0023D1
S11326303CE07B7A97F84220104619460122FFF7C6
S113264029FC034683F00103DBB2002B06D01948B2
S113265040F6B811FDF780FE002327E07B6AFB6398
S1132660BB6ABB63BA6BFB6B934238BF13467B6296
S11326707B6A7B63E7233B633A6B7B6B934228BFA4
S113268013467B620D490D4B5B6E23F4FF7323F0FD
S113269001037A6A52001A4397F84230002B01D0A2
S11326A0012300E0002313434B66012318465437EB
S11326B0BD4690BDD8480000B081E00F00300E4008
S11326C080B584B000AF78600023FB60344B1B6F8F
S11326D003F00703BB60324BDB6C03F00103002BF8
S11326E015D0BB68012B12D97B68132B02D80423A5
S11326F0FB600BE07B68132B05D97B68272B02D882
S11327000823FB6002E01023FB6033E032E0244B3B
S1132710DB6C03F00103002B15D1BB68012B12D82D
S11327207B68092B02D80423FB600BE07B68092B30
S113273005D97B68132B02D80823FB6002E0102321
S1132740FB6017E016E0164BDB6C03F00103002B73
S11327500BD0BB68012B08D87B68272B02D8082331
S1132760FB6007E01023FB6004E00E4840F6F6111E
S1132770FDF7F2FDFB68013BFB60FB681A02FB6896
S11327801B031343FB600649054BDB6C23F47F42B8
S1132790FB681343CB64FFF7B3FA1037BD4680BD23
S11327A000300E40D848000080B584B000AF034626
S11327B0FB7111480021FEF7DDFFF860FB68002B78
S11327C002D1FB79012B07D9FB68002B04D10B48FC
S11327D040F61521FDF7C0FD0949094B1B6F23F095
S11327E00702FB7913430B67064B1B881846FFF758
S11327F067FF1037BD4680BD4C300E40D8480000FE
S113280000300E40A200002080B485B000AF786094
S113281039607B6803F1C063FB60FB683A681A6047
S11328201437BD465DF8047B704700BF80B485B0A3
S113283000AF786039607B6803F18063FB60FB68FC
S11328403A681A601437BD465DF8047B704700BFD0
S113285080B582B000AF03463960FB71FB79002B71
S113286038D0FB79012B32D0FB79022B2CD0FB79A9
S1132870032B26D0FB79042B21D0FB79052B1BD00D
S1132880FB79062B16D0FB79072B11D0FB79082B8B
S11328900CD0FB79092B06D0FB790A2B01D1072335
S11328A01AE0002318E04FF4404315E00F2313E02F
S11328B0002311E000230FE04FF6FF730CE0002328
S11328C00AE04FF47F4307E040F6FF7304E04FF65D
S11328D0C07301E040F2FF333A68134103F001038F
S11328E0002B04D10C4840F2DD31FDF735FDFA79B7
S11328F013465B0013441B010C3303F1804303F5BF
S113290020433A68012101FA02F218461146FFF702
S11329108DFF0837BD4680BD3C49000080B582B0BC
S113292000AF03463960FB71FB79002B38D0FB798B
S1132930012B32D0FB79022B2CD0FB79032B26D030
S1132940FB79042B21D0FB79052B1BD0FB79062BBB
S113295016D0FB79072B11D0FB79082B0CD0FB790F
S1132960092B06D0FB790A2B01D107231AE0002397
S113297018E04FF4404315E00F2313E0002311E067
S113298000230FE04FF6FF730CE000230AE04FF43E
S11329907F4307E040F6FF7304E04FF6C07301E0A5
S11329A040F2FF333A68134103F00103002B04D1D2
S11329B00C4840F20C41FDF7CFFCFA7913465B005A
S11329C013441B010C3303F1804303F520433A689D
S11329D0012101FA02F218461146FFF715FF0837E4
S11329E0BD4680BD3C49000090B585B000AFB960DC
S11329F07B600346FB731346BB73FB7B002B38D011
S1132A00FB7B012B32D0FB7B022B2CD0FB7B032BDB
S1132A1026D0FB7B042B21D0FB7B052B1BD0FB7B1F
S1132A20062B16D0FB7B072B11D0FB7B082B0CD07D
S1132A30FB7B092B06D0FB7B0A2B01D107231AE071
S1132A40002318E04FF4404315E00F2313E0002364
S1132A5011E000230FE04FF6FF730CE000230AE0BF
S1132A604FF47F4307E040F6FF7304E04FF6C07372
S1132A7001E040F2FF33BA68134103F00103002B75
S1132A8004D137484FF48E71FDF766FCBB7B002BF5
S1132A900DD07B68002B05D0FB7B1846B968FFF787
S1132AA03DFF04E0FB7B1846B968FFF7D1FEBB6825
S1132AB0072B1CD82B4CFA7B2A48F97B0B465B006E
S1132AC00B441B0103445968BB689B0018460F2341
S1132AD08340DB430B40B97BB868800081401943D5
S1132AE013465B0013441B012344596024E01D4C2E
S1132AF0FA7B1C48F97B0B465B000B441B01034427
S1132B0008331968BB6803F18043083B9B001846EF
S1132B100F238340DB431940B87BBB6803F1804338
S1132B20083B9B0000FA03F3194313465B0013446C
S1132B301B01234408331960BB7B002B0DD17B6838
S1132B40002B05D0FB7B1846B968FFF7E7FE04E0CD
S1132B50FB7B1846B968FFF77BFE1437BD4690BD72
S1132B60A049000000A0004080B483B000AF7860AA
S1132B70396000BF7B685A6B3B681340002BF9D166
S1132B800C37BD465DF8047B704700BF80B586B046
S1132B9000AFF860B9607A60FB68114A934207D1CC
S1132BA0BB68012B04D87B681B0C1B04002B03D0CF
S1132BB00C48E521FDF7D0FBBB68002B02D0012BAC
S1132BC004D00AE0FB6810337B6103E0FB68143334
S1132BD07B6100BF7B697A681A601837BD4680BD87
S1132BE000600440044A000080B584B000AF7860FF
S1132BF039600023FB607B683D4A934204D03D4822
S1132C004FF4B871FDF7A8FB3B681B7883F0010310
S1132C10DBB2002B0CD07B689B6803F00103002B14
S1132C2006D078680221FFF79FFF7B6802225A6072
S1132C303B685B78002B03D0FB6843F48053FB6054
S1132C403B689B78002B03D13B68DB68002B0BD0DF
S1132C50FB6843F40073FB603B68DB68002B03D024
S1132C603B68DA687B681A613B68DB78002B03D029
S1132C70FB6843F48073FB603B681B79002B03D033
S1132C80FB6843F04003FB603B685B79002B03D097
S1132C90FB6843F08003FB603B689B799B001A460A
S1132CA0FB681343FB603B68DB791B011A46FB6836
S1132CB01343FB603B681B7A1A46FB681343FB60B3
S1132CC07B68FA681A603B681B78002B0CD07B6821
S1132CD09B6803F00103002B06D178680221FFF7FB
S1132CE043FF7B6801225A601037BD4680BD00BF98
S1132CF000600440044A000080B483B000AF7860F0
S1132D0039607B681B6C03F00103002B00D006E0E4
S1132D1000BF7B685A6C3B681340002BF9D10C3719
S1132D20BD465DF8047B704780B586B000AFF8609F
S1132D30B9607A607B68002B04D11E484FF482711D
S1132D40FDF70AFBBB68002B10D1FB681A4A9342BB
S1132D5006D11A4B7B617869FDF712FEB86005E075
S1132D6014484FF49671FDF7F7FA1FE0BB685A0157
S1132D707B68B2FBF3F33B613B69203B3B613B69FE
S1132D80DB003B613B690E4A934204D9094840F297
S1132D903911FDF7E1FA3A69094B13403B61F868D0
S1132DA00421FFF7A9FFFB683A69DA601837BD46CA
S1132DB080BD00BF1C4A000000A0044090171A0008
S1132DC0F8FF010080B584B000AF78600B46FB705B
S1132DD07B68104A934204D00F4840F25D11FDF71E
S1132DE0BBFAFB78DB43FB60FB6803F00503FB6085
S1132DF0FB685B00FB60FB78FA681343FB60786850
S1132E000221FFF779FF7B68FA685A601037BD46E4
S1132E1080BD00BF00A004401C4A000080B483B001
S1132E2000AF78600B46FB70FB78002B08D000BF26
S1132E307B685B6C002BFBD17B6801221A6402E087
S1132E407B6800221A640C37BD465DF8047B70472A
S1132E5080B582B000AF786039607B681B4A9342CA
S1132E6004D01B484FF4DF71FDF776FA786802212D
S1132E70FFF742FF7B680A225A6078680121FFF756
S1132E80CDFF7B681B6823F01C033A68127B134355
S1132E903A68527B13433A68927B1A437B681A6000
S1132EA03B685A683B689B68786811461A46FFF786
S1132EB03BFF3B681B781A467B685A6078680021A0
S1132EC0FFF7ACFF0837BD4680BD00BF00A004403B
S1132ED01C4A000080B58AB000AF7860396045F2C2
S1132EE04143BB6007F10C0300221A600433002243
S1132EF01A60043300221A60043300221A60043377
S1132F0000221A60043300221A60043300221A805B
S1132F10023307F108031846796800F013FD3B6893
S1132F20002B05D007F108031846396800F00AFDA4
S1132F3007F108031846064900F004FD07F10803E9
S1132F40184600F08FF9002318462837BD4680BD87
S1132F50844A000080B500AF40F2DC5000F014F861
S1132F60034800F07FF940F2DC5000F00DF880BD1A
S1132F70884A000080B500AF02480021FFF7AAFF8D
S1132F8080BD00BF8C4A000080B582B000AF78607D
S1132F90074B01221A70786800F06EFB00BF044BE7
S1132FA01B78DBB2002BFAD10837BD4680BD00BFC9
S1132FB0C200002080B584B000AFFFF7CBFF2648E5
S1132FC02649FFF787FF26480021FFF783FF4FF4C8
S1132FD0FA70FFF7D9FF23482349FFF77BFF204806
S1132FE00021FFF777FF4FF4FA70FFF7CDFF1F4A78
S1132FF03B1D07CA03C31A800233120C1A703B1D0F
S11330001B481946FFF766FF15480021FFF762FFCA
S11330104FF4FA70FFF7B8FF16481749FFF75AFF45
S11330200F480021FFF756FF4FF4FA70FFF7ACFF8B
S113303012481349FFF74EFF4FF4FA70FFF7A4FF4D
S1133040FFF798FF4FF47A70FFF79EFF0D4800F0EA
S113305009F91037BD4680BD904A0000944A00002B
S11330609C4A0000A04A0000A44A0000E04A000074
S1133070AC4A0000B04A0000B44A0000BC4A000058
S1133080C04A0000C84A0000B0B58CB000AF234B62
S113309007F12004186859689A68DB680FC4204B4C
S11330A007F10C041D4628686968AA68EB680FC418
S11330B02B8A23801B4A07F1080310681860002339
S11330C03B7100237B7107F120031846FFF798F842
S11330D002237B713B1D1846FEF7C4FD07F10C0368
S11330E01846FDF7F3FF07F108031846FEF76EF8DC
S11330F011200421FDF736FE032000210022FEF7F3
S11331009FF8012000210022FEF79AF806480121C9
S1133110FDF7CAFB3037BD46B0BD00BFEC4A000026
S1133120FC4A0000104B000000250A0080B483B064
S113313000AF0346FB7197F90730002B0BDB0849FE
S113314097F907305B09FA7902F01F02012000FAAF
S113315002F241F823200C37BD465DF8047B70472A
S113316000E100E080B584B000AF30480121FDF7F4
S11331709BFB2F480221FDF7F5FD2E480121FDF7A9
S113318093FB2D480121FDF78FFB03200B21012226
S11331900023FFF729FC03200A2104220123FFF75F
S11331A023FC00233B7000237B604FF41653BB6069
S11331B000233B7300237B730023BB733B461F48F0
S11331C01946FFF745FE1D4B41F212229A651B4B2F
S11331D003225A65194B0D225A6100BF174B5B6CD1
S11331E0002BFBD1154BC0225A6000BF134B5B6C04
S11331F0002BFBD1114B01225A63104B01229A631D
S11332000E4A0E4B9B6B43F0040393630B4A0B4B28
S11332109B6B43F4806393631620FFF787FF074893
S11332200521FFF7CFFD1037BD4680BD40410500A5
S11332300300200090171A0000350A0000A0044083
S113324080B582B000AF0346FB71FEF767FA044A0B
S1133250FB799362FEF76AFA0837BD4680BD00BF6A
S113326000A0044080B584B000AF7860032000F073
S1133270BBF8786800F07FFB0346BB810023FB8129
S113328016E0FB897A6813441B781846FFF7D8FFC9
S113329001E000F087F80B4B1B7883F00103DBB2ED
S11332A0002BF6D1074B00221A70FB890133FB81F6
S11332B0FA89BB899A42E4D3032000F0B3F81037AB
S11332C0BD4680BDC000002080B483B000AF284B51
S11332D0DA6A274B9B6B13407B60254A7B685363F8
S11332E07B6803F00103002B02D0224B01221A70E9
S11332F07B6803F00403002B14D01F4B1B781A4681
S11333001B4BDB69D9B21D4B99541B4B1B78013302
S1133310DAB2194B1A70184B1B78192B02D9164BB9
S113332000221A707B6803F48063002B1AD0104BC0
S113333010225A6000BF0E4B5B6C002BFBD10C4A71
S11333400B4B9B6B23F004039363094A084B9B6B61
S113335023F4806393630A4B1B7843F00203DAB2CD
S1133360074B1A700C37BD465DF8047B704700BFED
S113337000A00440C0000020C1000020E80000209C
S1133380C300002080B400AF054A054B1B6923F03D
S11333900403136130BFBD465DF8047B704700BF72
S11333A000ED00E080B500AF0E4B1B78002B00D081
S11333B016E00C4B5B78002B00D011E0094B9B7896
S11333C0002B02D0FFF7DEFF0AE0064BDB78002B70
S11333D003D00120FEF75AFB02E00120FEF77EFB3A
S11333E080BD00BF0401002080B582B000AF034659
S11333F0FB71FEF793F9FB79042B07D8FB79074A95
S1133400D25C0132D1B2054AD15402E0044800F042
S113341081FAFEF78BF90837BD4680BD0401002010
S1133420144B000080B582B000AF0346FB71FEF779
S113343075F9FB79042B0CD8FB790A4AD35C002B71
S11334400AD0FB79074AD25C013AD1B2054AD15479
S113345002E0054800F05EFAFEF768F90837BD4659
S113346080BD00BF04010020144B000080B483B071
S113347000AF0346FB7197F90730002B0BDB0849BB
S113348097F907305B09FA7902F01F02012000FA6C
S113349002F241F823200C37BD465DF8047B7047E7
S11334A000E100E080B483B000AF786039607B68ED
S11334B03A689A620C37BD465DF8047B704700BFDA
S11334C080B483B000AF786039607B68DA6A3B68A7
S11334D0DB431A407B68DA620C37BD465DF8047B37
S11334E0704700BF80B483B000AF786039607B68F8
S11334F0DA6A3B681A437B68DA620C37BD465DF8CA
S1133500047B704780B485B000AF78607B68DB6A69
S1133510FB607B681A6AFB68134018461437BD4683
S11335205DF8047B704700BF80B582B000AF78605F
S113353031480121FDF7B8F9304A7B681360002057
S113354000210022FDF77CFE2D480A21FDF70AFC2C
S11335502B48FDF715FA03461A462A4B1A60294BE5
S113356001225A60284A284BD3F8E03043F0010383
S1133570C2F8E03025480421FFF7A2FF23480221C6
S1133580FFF79EFF1F4B1A681E4B5B6892FBF3F319
S11335907A6802FB03F31E4A82FB03129211DB17C3
S11335A0D31A9BB2194800211A46FFF7EFFA194BB8
S11335B001221A70174B01225A70164B01229A707D
S11335C0144B0022DA70134B00221A71114B0022A3
S11335D05A71104B00229A710E4B0022DA710D4B76
S11335E000221A7209480B49FFF7FEFA1B20FFF765
S11335F03DFF0837BD4680BD80061600BC00002094
S113360002001E00E000002000400E400060044064
S1133610D34D6210D000002080B582B000AFFEF719
S11336205FF878601148FFF76DFF38600F4839681C
S1133630FFF738FF7868FEF763F83B6803F004038C
S1133640002B04D00A4B1B680133094A13603B6802
S113365003F00203002B06D004480221FFF730FFD9
S1133660044B00221A700837BD4680BD0060044038
S1133670B8000020C200002080B586B000AF78609A
S11336801B4B1A681A4B5B6892FBF3F37A6802FBD4
S113369003F3184A82FB03129211DB17D31A9BB26D
S11336A03B61154BDB68FB603A69FB689A420BD9B6
S11336B0114B1A69F9683B69CB1A1344184600F098
S11336C0E3F803467B6103E0FA683B69D31A7B6144
S11336D0094801217A69FFF759FA07480221FFF7DF
S11336E0E1FE05480221FFF7FDFE1837BD4680BD07
S11336F0E0000020D34D62100060044080B400AFAD
S1133700044BDB6C1B0EDBB21846BD465DF8047B34
S1133710704700BFB081E00F80B582B000AF154B99
S113372001225A64FFF7EAFF0346FB71FB79002B81
S11337300CD1114B4AF6E8521A60104A0F4B1B6821
S113374043F0040313600C4B00221A60FB79012B35
S113375005D80B4A0A4B1B6843F400531360094A0B
S1133760084B1B6A23F4441343F488131362083789
S1133770BD4680BD00000E4090310E4098310E4091
S113378064310E4000400E4080B588B000AFFFF7B2
S1133790C3FFFFF779FC43F69820FFF7C5FEFFF758
S11337A0E1FC0320FFF720FEFFF704FC2F4B1B78FE
S11337B0DBB2002B01D1FFF7F5FD2C4B1B78DBB2FC
S11337C003F00203002B4FD0FDF7A8FF0023FB7783
S11337D00CE0FB7FFA7F26498A5CD2B207F1200114
S11337E00B4403F81C2CFB7F0133FB77214B1B7824
S11337F0DBB2FA7F9A42ECD31E4B1B78DBB207F1A3
S113380020021344002203F81C2C1A4B00221A70C5
S11338103B793B707B797B70FDF788FF3B1D184635
S1133820154900F09EF80346002B11D03B1D1846A5
S1133830124900F096F80346002B02D1104B0022E7
S11338401A703B4618460F4900F08BF8074B1B785B
S1133850FDF764FF054B1B78DBB223F00203DAB2F9
S1133860024B1A70FDF762FFA0E700BFC3000020FF
S1133870E8000020C1000020384B0000404B00004D
S1133880C2000020444B00000028B8BF40427047EB
S113389008B5074B044613B10021AFF30080054B74
S11338A01868836A03B19847204600F05BFF00BFA5
S11338B0000000004C4B000070B50E4B0E4CE41A97
S11338C0A41000251E46A54204D056F8253098477A
S11338D00135F8E700F048FF084C094BE41AA4103E
S11338E000251E46A54204D056F8253098470135D8
S11338F0F8E770BD78000020780000207C000020EC
S11339007800002002440346934202D003F8011BCE
S1133910FAE770470FB40A4B13B51C6824B1A369C6
S113392013B9204600F070F805AB2046A168049A4C
S1133930019300F06FF902B0BDE8104004B0704785
S11339407400002010B50246134601321C78002C86
S1133950FAD1013B11F8012B03F8012F002AF9D108
S113396010BD10F8012B11F8013B012A28BF9A421F
S1133970F7D0D01A7047034613F8012B002AFBD165
S1133980181A013870470000014900F0A7B800BFB9
S1133990C5440000002310B50446036043608360FF
S11339A081814366C28103614361836119465C304E
S11339B00822FFF7A7FF054B6362054BA362054B83
S11339C0E362054B2462236310BD00BF7141000014
S11339D093410000CB410000EF41000070B5682323
S11339E04D1E5D430E4605F1740100F095F8044642
S11339F040B1002180E842000C30A06005F168026B
S1133A00FFF780FF204670BD836910B5044633BBC1
S1133A108364C3640365124B124A1B688262984232
S1133A2004BF0123836100F01FF86060204600F0AA
S1133A301BF8A060204600F017F80421E060002283
S1133A406068FFF7A7FFA06809210122FFF7A2FF22
S1133A50E06812210222FFF79DFF0123A36110BD3C
S1133A604C4B000089390000F8B51B4B1E68B36944
S1133A70074613B93046FFF7C7FF4836B468736882
S1133A80013B04D4B4F90C5075B16834F8E73368D9
S1133A902BB938460421FFF7A1FF306008B136681E
S1133AA0ECE70C233B60F8BD4FF6FF73E381012381
S1133AB0A38165662560A560656025616561A56172
S1133AC004F15C0029460822FFF71CFF6563A56327
S1133AD0A564E5642046F8BD4C4B00002DE9F8438D
S1133AE08046894600F14804002694B1A5686768B9
S1133AF0013F0CD4AB89012B07D9B5F90E30013342
S1133B0003D040462946C84706436835F0E7246891
S1133B10EBE73046BDE8F88370B5CC1C24F0030411
S1133B2008340C2C38BF0C24002C064603DA0C2372
S1133B303360002070BD8C42F9D3204A13681046CC
S1133B401946A1B10A68121B0ED40B2A03D90A60C4
S1133B508B188C501FE08B420DBF5A684A685A601C
S1133B60026018BF0B4616E00B464968E9E7144D9E
S1133B702B681BB9304600F0EBFA2860304621462A
S1133B8000F0E6FA421C0346D1D0C51C25F003051B
S1133B9085420AD11C6003F10B001A1D20F00700B6
S1133BA0821A0AD05142995070BD3046E91A00F089
S1133BB0CFFA0130BBD02B46ECE770BDC800002023
S1133BC0C40000209368013B002B10B5936009DA10
S1133BD09469A34202DBCBB20A2B03D1BDE81040A7
S1133BE000F00ABB1368581C10601970C8B210BDED
S1133BF0F8B506460F461446D518AC4208D03046F0
S1133C0014F8011B3A46FFF7DDFF431CF5D100E031
S1133C100020F8BD2DE9F0439DB00D469046039376
S1133C20064618B183690BB9FFF7EEFE754B9D424A
S1133C3001D1756808E0744B9D4201D1B56803E079
S1133C40724B9D4208BFF568AB891C070AD52B69E6
S1133C5043B10023099320238DF8293030238DF8B4
S1133C602A3041E03046294600F02CFB0028F0D0F1
S1133C704FF0FF30C2E0039A111D12680391002A2D
S1133C80BBBF524243F0020307920792B8BF0493AA
S1133C90013423782E2B7BD0DFF8808121784046B5
S1133CA0032200F099FC38B1049AC8EB00004023C9
S1133CB08340134304930134217855488DF8281028
S1133CC0062204F1010800F087FC002800F085803A
S1133CD0504B002B78D1039B073323F007030833A1
S1133CE00393099B3B44099343461C4613F8012B59
S1133CF01AB9B4EB08090ED002E0252AF5D1F8E789
S1133D003046294642464B46FFF772FF013070D0D9
S1133D10099B4B4409932378002B6AD000234FF06E
S1133D20FF3204930793059206938DF853301A9348
S1133D3004F101084446DFF8E8902178484605225A
S1133D4000F04AFC08F10108049B30B1C9EB000003
S1133D500122824013430493ECE7D80644BF202297
S1133D608DF85320190744BF2B228DF85320227855
S1133D702A2A80D0079923461C4601332278303AF8
S1133D80092A03D80A2000FB0121F5E7079180E7FF
S1133D9063782A2B0AD1039B1A1D1B680392002BFC
S1133DA0B8BF4FF0FF330234059375E7611C00225E
S1133DB00C4601312378303B092B03D80A2000FB41
S1133DC00232F5E7059267E703AB0093304604A996
S1133DD02A46114BAFF3008007E003AB0093304653
S1133DE004A92A460C4B00F093F8421C07467FF4C2
S1133DF078AFAB895B063FF53BAF09981DB0BDE8D2
S1133E00F08300BF504B0000704B0000904B00004B
S1133E10BA4B000000000000F13B0000B64B00006C
S1133E20B04B00002DE9F84391461F468A680B69A0
S1133E30DDF820809342B8BF1346C9F8003091F8EA
S1133E40432006460C4612B10133C9F800302368FA
S1133E50990642BFD9F800300233C9F8003025680A
S1133E6015F006051CD094F843302268003318BFBF
S1133E70012392061FD5E1185A1C302081F8430013
S1133E80224494F8451082F84310023313E030467C
S1133E90394604F119020123C047013007D0013526
S1133EA0E368D9F800209B1A9D42F0DBDBE74FF072
S1133EB0FF30BDE8F8833046394604F14302C04779
S1133EC00130F4D02268D9F80050E36802F0060209
S1133ED0042A08BF5D1B2269A3680CBF25EAE575A7
S1133EE000259342C4BF9B1AED184FF00009A94561
S1133EF00ADA3046394604F11A020123C047013078
S1133F00D5D009F10109F2E70020BDE8F8830000EB
S1133F102DE9FF410C461746227E6E2A9846064636
S1133F200A9B01F1430100F0AF8012D8632A23D029
S1133F300AD8002A00F0BC80582A40F0CB8084F8CC
S1133F404520DFF804E257E0642A1ED0692A1CD019
S1133F50C0E0732A00F0B08009D86F2A2ED0702AEE
S1133F6040F0B880226842F0200222603FE0752AC7
S1133F7024D0782A3BD0ADE01A68111D196013686B
S1133F8084F8423004F14205A8E020681A6810F071
S1133F90800F02D0101D186008E010F0400F02F1ED
S1133FA00400186002D0B2F9003000E01368002B5E
S1133FB03EDA2D225B4284F8432039E020681A68F7
S1133FC010F0800F02D0101D186007E010F0400FB1
S1133FD002F10400186001D0138800E01368227E07
S1133FE0DFF864E16F2A0CBF08220A221CE0782261
S1133FF0DFF858E184F845202268186812F0800F31
S113400000F104051D6003D1550601D5038800E0C5
S11340100368D00744BF42F0200222601BB9226823
S113402022F0200222601022002084F8430002E0E3
S1134030DFF814E10A226568A560002DA2BF20689C
S113404020F00400206003B965B10D46B3FBF2F023
S113405002FB10331EF8033005F8013D0346002827
S1134060F4D100E00D46082A0BD12368DA0708D5FD
S1134070236962689A42DEBF302305F8013C05F1EA
S1134080FF35491B21612EE025681A68606915F027
S1134090800F03D0151D1D60136808E015F0400F54
S11340A002F104051D60136801D0188000E0186057
S11340B0002323610D4616E01A68111D1960156866
S11340C062682846002100F087FA08B1401B60604E
S11340D0636804E004F1420584F84220012323616B
S11340E0002384F84330CDF800803046214603AAEB
S11340F03B46FFF797FE013002D14FF0FF301FE03F
S1134100304639462A462369C0470130F5D0236832
S11341109B0705D4E068039B9842B8BF18460FE09C
S11341200025E368039A9B1A9D42F3DA3046394628
S113413004F119020123C0470130DED00135F0E754
S113414004B0BDE8F08100BFC14B0000D24B0000B9
S113415038B5064C002305460846236000F0ECFA07
S1134160431C02D1236803B12B6038BD0C0100202D
S113417010B50C46B1F90E1000F082FA0028ABBF5E
S1134180636DA3891B1823F48053ACBF6365A381BB
S113419010BD2DE9F0411D468B89DB0507460C4611
S11341A0164605D5B1F90E100022022300F0B4F929
S11341B0A389B4F90E1023F48053A3813846324600
S11341C02B46BDE8F04100F06BB810B50C46B1F9D0
S11341D00E1000F0A1F9431CA38915BF606523F4F8
S11341E0805343F48053A38118BFA38110BDB1F958
S11341F00E1000F0D3B8000070B50D461446064604
S113420018B183690BB9FFF7FFFB224B9C4201D124
S1134210746808E0204B9C4201D1B46803E01F4B52
S11342209C4208BFF468A369A360A3891A0709D54F
S113423023693BB123682069181A63699842EDB277
S11342400FDB08E03046214600F03CF80028F1D0AE
S11342504FF0FF3070BD3046214600F033F900289E
S1134260F6D1A368013BA36023685A1C22601D7029
S113427063690130984204D0A389DB0707D50A2D6E
S113428005D13046214600F01DF90028E0D128462A
S113429070BD00BF504B0000704B0000904B0000FD
S11342A038B5074C054600202060084611461A46DA
S11342B000F050FA431C02D1236803B12B6038BDCF
S11342C00C010020314B70B51D6806460C4625B123
S11342D0AB6913B92846FFF797FB2D4B9C4201D1DC
S11342E06C6808E02B4B9C4201D1AC6803E02A4B7C
S11342F09C4208BFEC68A3899AB211071DD4D50665
S113430002D40922326038E0500712D5616B41B102
S113431004F14403994202D0304600F06DF90023C1
S11343206363A38923F02403A381002363602369C7
S11343302360A38943F00803A38123694BB9A389AC
S113434003F42073B3F5007F03D03046214600F018
S1134350F5F8A38913F0010205D00022A260626976
S11343605242A26103E0990758BF6269A2602269C0
S11343704AB903F0800080B230B143F04003A38116
S11343804FF0FF3070BD002070BD00BF74000020EE
S1134390504B0000704B0000904B000038B5064CA9
S11343A0002305460846236000F09EF9431C02D111
S11343B0236803B12B6038BD0C0100208A892DE9E4
S11343C0F041054610070C4657D44B68002B02DC1D
S11343D00B6C002B18DDE66AB6B102F480520023A0
S11343E092B22F682B600AB1626D10E0216A2846F0
S11343F00123B047411C024609D12B683BB11D2B58
S113440001D0162B47D12F600020BDE8F081A3898D
S11344105B0705D56368D21A636B0BB1236CD21AA0
S1134420E66A216A00232846B047461CA38905D1C1
S11344302A681AB11D2A01D0162A19D100226260F5
S1134440D9042269226004D5421C01D12B6803B926
S11344506065616B2F600029D6D004F14403994252
S113446002D0284600F0C8F800206063BDE8F0815F
S113447043F04003A381BDE8F0810F69002FC3D04E
S113448093070E6808BF4B690F6018BF0023C7EB82
S113449006088B6012E0A38943F04003A3814FF028
S11344A0FF30BDE8F0812846216AA66A3A464346B1
S11344B0B0470028EFDD0744C0EB0808B8F1000F4F
S11344C0F1DCA1E738B50B6905460C46DBB118B140
S11344D083690BB9FFF798FA0C4B9C4201D16C68C5
S11344E008E00B4B9C4201D1AC6803E0094B9C42B1
S11344F008BFEC68B4F90C302BB128462146BDE85E
S11345003840FFF75BBF002038BD00BF504B0000B0
S1134510704B0000904B000038B5074C0546002056
S11345202060084611461A4600F0F6F8431C02D1F2
S1134530236803B12B6038BD0C010020F0B58B89D2
S11345409D0791B006460C4626D4B1F90E100029F9
S113455009DAA38913F0800F4FF0000514BF402738
S11345604FF480670DE001AA00F09CF80028F0DB0E
S1134570029D05F47045A5F500514D424D414FF49F
S1134580806730463946FFF7C7FA60B9A3899A05B0
S11345901DD443F00203A38104F147032360236184
S11345A00123636113E00B4BB362A389206043F0E2
S11345B08003A381206167614DB13046B4F90E10C8
S11345C000F082F818B1A38943F00103A38111B06C
S11345D0F0BD00BF8939000010B5C9B20244904251
S11345E0034606D01C788C4200F10100F7D118462E
S11345F010BD002010BD000030B500293DD051F899
S1134600042C0B1F1D49002AB8BF9B180A680C46CE
S113461012B95A600B6030BD93420DD21968581814
S1134620904201BF5A5852181A6042685A60236077
S113463030BD994203D80A4651680029F9D114685B
S113464015199D420AD11B682344D018884213606F
S113465013D10868034413604B680DE002D90C239E
S1134660036030BD1C681819884204BF0868496893
S1134670596004BF00191860536030BDC8000020A1
S113468038B5074C054600202060084611461A46F6
S113469000F04AF8431C02D1236803B12B6038BDF3
S11346A00C01002038B5074C002305460846114686
S11346B0236000F021F8431C02D1236803B12B606E
S11346C038BD00BF0C01002038B5064C0023054658
S11346D00846236000F018F8431C02D1236803B194
S11346E02B6038BD0C010020024B58221A604FF099
S11346F0FF3070470C010020024B58221A604FF023
S1134700FF3070470C010020024B58221A60002031
S1134710704700BF0C010020024B58221A604FF072
S1134720FF3070470C010020024B58221A604FF0F2
S1134730FF3070470C010020044A05491368002B20
S113474008BF0B461844106018467047CC00002080
S113475010010020024B58221A604FF0FF307047BE
S11347600C010020FEE700BFF8B500BFF8BC08BC90
S11347709E467047F8B500BFF8BC08BC9E4670471B
S1134780633A5C73696C69636F6E6C6162735C73CA
S1134790696D706C696369747973747564696F5C4D
S11347A076345C646576656C6F7065725C73646B9B
S11347B0735C6765636B6F5F73646B5F7375697458
S11347C0655C76322E365C706C6174666F726D5CFB
S11347D0656D6C69625C696E635C656D5F636F6D6A
S11347E06D6F6E2E68000000633A5C73696C6963D8
S11347F06F6E6C6162735C73696D706C696369740C
S11348007973747564696F5C76345C646576656C21
S11348106F7065725C73646B735C6765636B6F5F09
S113482073646B5F73756974655C76322E365C7085
S11348306C6174666F726D5C656D6C69625C696EE7
S1134840635C656D5F636D752E680000433A2F539A
S1134850696C69636F6E4C6162732F53696D706C20
S1134860696369747953747564696F2F76342F643E
S11348706576656C6F7065722F73646B732F6765F3
S1134880636B6F5F73646B5F73756974652F7632E6
S11348902E362F706C6174666F726D2F656D6C6946
S11348A0622F7372632F656D5F636D752E630000F5
S11348B040787D0100000000005A620200010000FF
S11348C0C0CF6A0002000000809FD50002010000F2
S11348D0002D310102020000433A2F53696C6963D1
S11348E06F6E4C6162732F53696D706C6963697488
S11348F07953747564696F2F76342F646576656CAB
S11349006F7065722F73646B732F6765636B6F5F72
S113491073646B5F73756974652F76322E362F70EE
S11349206C6174666F726D2F656D6C69622F737242
S1134930632F656D5F656D752E630000633A5C736C
S1134940696C69636F6E6C6162735C73696D706CC2
S1134950696369747973747564696F5C76345C64D3
S11349606576656C6F7065725C73646B735C6765A8
S1134970636B6F5F73646B5F73756974655C7632C8
S11349802E365C706C6174666F726D5C656D6C69FB
S1134990625C696E635C656D5F6770696F2E680049
S11349A0433A2F53696C69636F6E4C6162732F5382
S11349B0696D706C696369747953747564696F2F78
S11349C076342F646576656C6F7065722F73646BD3
S11349D0732F6765636B6F5F73646B5F7375697463
S11349E0652F76322E362F706C6174666F726D2F60
S11349F0656D6C69622F7372632F656D5F67706993
S1134A006F2E63002E2E2F656D6C69622F656D5FAE
S1134A106C6574696D65722E63000000433A2F5310
S1134A20696C69636F6E4C6162732F53696D706C4E
S1134A30696369747953747564696F2F76342F646C
S1134A406576656C6F7065722F73646B732F676521
S1134A50636B6F5F73646B5F73756974652F763214
S1134A602E362F706C6174666F726D2F656D6C6974
S1134A70622F7372632F656D5F6C65756172742E3E
S1134A80630000000D0000002B2B2B00434E0000A0
S1134A9042440000307830330000000057520000D8
S1134AA049500000307830320000000050230000EC
S1134AB054440000307830440000000041500000AD
S1134AC0307830300000000054657874696E6720D7
S1134AD066726F6D204765636B6F210D00000000E7
S1134AE037333235373035383830000000020807A4
S1134AF005000A00C8000000FFFF010001000000DB
S1134B00A00068010A200706020A0407000000004A
S1134B10000207003E204552524F523A204F75740E
S1134B20206F6620626F756E647320456E657267D0
S1134B3079204D6F64650A004552524F520D0000B2
S1134B404F4B0D00307839660043000014000020FC
S1134B500000000000000000000000000000000051
S1134B600000000000000000000000000000000041
S1134B700000000000000000000000000000000031
S1134B800000000000000000000000000000000021
S1134B900000000000000000000000000000000011
S1134BA00000000000000000000000000000000001
S1134BB0232D302B2000686C4C0065666745464702
S1134BC00030313233343536373839414243444585
S1134BD046003031323334353637383961626364F4
S1134BE0656600001000000000000000017A520019
S1134BF0027C0E011B0C0D001000000018000000C8
S1134C0062EDFFFF1400000000000000000000003F
S10B4C1058B5FF7F010000000C
S1134C18005A620200800000C0EA2101C0EA2101B2
S1134C28C0EA210100000000504B0000704B000056
S1134C38904B00000000000000000000000000008D
S1134C4800000000494B00000000000000000000C4
S1134C580000000000000000000000000000000048
S1134C680000000000000000000000000000000038
S1134C780000000000000000000000000000000028
S1134C880000000014000020310100000D010000A4
S1074C980000000014
S90301DD1E
